:100000000C9463000C948B000C948B000C948B006C
:100010000C948B000C948B000C948B000C948B0034
:100020000C948B000C948B000C948B000C9400129D
:100030000C948B000C948B000C948B000C948B0014
:100040000C945E110C948B000C94CE110C94A8119E
:100050000C948B000C948B000C948B000C948B00F4
:100060000C948B000C948B000000000023002600F1
:10007000290000000000240027002A0000000008DA
:10008000000201000003040700000000000000005F
:10009000010204081020408001020408102001021F
:1000A0000408102000000000250028002B00040494
:1000B0000404040404040202020202020303030310
:1000C00003032E13EF1411241FBECFEFD8E0DEBFC1
:1000D000CDBF12E0A0E0B1E0E4E5F0E302C005909E
:1000E0000D92AE3AB107D9F725E0AEEAB2E001C011
:1000F0001D92A33DB207E1F710E0C2E6D0E004C0D4
:100100002197FE010E94F216C136D107C9F70E945D
:1001100028140C941D180C9400004F925F926F925B
:100120007F928F929F92AF92BF92FF9220919D05F6
:1001300030919E058217930708F043C02B01662477
:100140007724852E962EA72EBB24B82DA42F209180
:10015000A305F42C222391F0E22FF0E0E49DD001DE
:10016000E59DB00DF49DB00D1124FB2E289D40019E
:100170001124B92D249F90011124A32FE091A905EA
:100180002091A4053091A5055091A605E51323C043
:10019000FC01EE0FFF1F8E0F9F1F820F931FE09138
:1001A000A605E80FF92FF11DF082E091A705E80FF1
:1001B000F92FF11DB0832091A805820F911DFC013C
:1001C000A083FF90BF90AF909F908F907F906F9093
:1001D0005F904F900895880F991F880F991F820F85
:1001E000931FE80FF92FF11D1082D9CF0F931F93A2
:1001F000CF93DF931092750390E041E050E0682FB9
:10020000880F770BABE4B0E0C0917503E0917E03FB
:10021000F0917F0380917D039A0101C0220F8A959E
:10022000EAF7C83008F04EC08B0102C0159507955B
:10023000CA95E2F7808100FF42C0282B2083E0911D
:100240007B03F0917C03808120917A03EA0102C054
:10025000CC0FDD1F2A95E2F79E01209528232083ED
:10026000FD013197F1F7E0918403F091850320813E
:1002700030E08091830302C0359527958A95E2F797
:1002800020FF08C0809175039A0101C0220F8A9552
:10029000EAF7922BE0917B03F0917C03808120911F
:1002A0007A038A0102C0000F111F2A95E2F7802B02
:1002B0008083809175038F5F80937503A5CF209510
:1002C0002823BCCF8081822B8083E7E0F0E0319748
:1002D000F1F7892FDF91CF911F910F91089530E0B1
:1002E00020E090E0AC01022E02C0559547950A949B
:1002F000E2F740FF02C0822F08952F5F3F4F283062
:10030000310581F780E00895FC01738762879B01C6
:100310002B563F4F31872087FB0185E5E217F30716
:1003200011F08193FBCF0895FC012FB7F8946091F1
:100330005C0370915D0380915E0390915F032FBF1A
:1003400060837183828393830895BC012091760337
:1003500030917703409178035091790342275327D6
:100360004823572391E0452B09F490E020953095E0
:100370002623372381E0232B09F480E08923089585
:1003800090E0FC01E458FF4F2491FC01E057FF4F3F
:100390003491FC01E255FF4FE491EE23C9F0222392
:1003A00039F0233001F1A8F4213019F1223029F17C
:1003B000F0E0EE0FFF1FEC55FF4FA591B4918FB702
:1003C000F894EC91611126C030953E233C938FBF89
:1003D00008952730A9F02830C9F0243049F78091DA
:1003E00080008F7D03C0809180008F778093800094
:1003F000DFCF84B58F7784BDDBCF84B58F7DFBCF16
:100400008091B0008F778093B000D2CF8091B00000
:100410008F7DF9CF3E2BDACFCF93DF9390E0FC01B5
:10042000E057FF4F249182559F4FFC018491882310
:10043000D1F090E0880F991FFC01EE58FF4FA59175
:10044000B491FC01EC55FF4FC591D49161110EC0E0
:100450009FB7F8948C91E22FE0958E238C9328819E
:10046000E223E8839FBFDF91CF9108958FB7F8947F
:10047000EC91E22BEC938FBFF6CF3FB7F8948091CD
:100480002E0490912F04A0913004B091310426B530
:10049000A89B05C02F3F19F00196A11DB11D3FBFBC
:1004A000BA2FA92F982F8827BC01CD01620F711D8B
:1004B000811D911D42E0660F771F881F991F4A9585
:1004C000D1F708950F931F93CF93DF93CDB7DEB786
:1004D00029970FB6F894DEBF0FBECDBF8091A4055B
:1004E0009091A505892B09F47CC00E943D020091E2
:1004F000AA051091AB052091AC053091AD056017B0
:1005000071078207930740F46093AA057093AB05C7
:100510008093AC059093AD050091AA051091AB05B1
:100520002091AC053091AD05601B710B820B930BD4
:100530006C32714081059105C0F2F89480919F055D
:100540009091A0059A838983E091A405F091A50577
:10055000DF0111968081898790919B05E091AE051E
:10056000F091AF058091B005992309F445C09081C1
:10057000982B98879081809589238F838F818C8396
:1005800088E08B8358856F8149853B812C818981E7
:100590009A81508347FD252F3A952083262F39F0E5
:1005A000441F00C000006083000000C0F2CF38E0AC
:1005B0004D9160830000019761F7F093AF05E093E0
:1005C000AE0549873B832C839A83898378940E9464
:1005D0003D026093AA057093AB058093AC059093A0
:1005E000AD0529960FB6F894DEBF0FBECDBFDF91E3
:1005F000CF911F910F9108959081982B98879081AA
:10060000809589238F838F818E8388E08D835885A1
:100610006F8149853D812E8189819A81508347FD73
:10062000252F00C000C0208300C000C000C000C053
:1006300000C060830000262F3A9541F0441F00005F
:1006400000C000C000C000C000C0E8CF38E04D913D
:1006500000C0608300C0019709F7F093AF05E093F5
:10066000AE0549873D832E83AFCFAF92BF92CF9225
:10067000DF92EF92FF920F931F93CF93DF936C0162
:100680007B018B01040F151FEB015E01AE18BF0843
:10069000C017D10759F06991D601ED91FC910190F5
:1006A000F081E02DC6010995892B79F7C501DF910D
:1006B000CF911F910F91FF90EF90DF90CF90BF905F
:1006C000AF900895FC01538D448D252F30E0842F89
:1006D00090E0821B930B541710F0CF96089501976A
:1006E0000895FC01918D828D981761F0A28DAE0F57
:1006F000BF2FB11D5D968C91928D9F5F9F73928FDE
:1007000090E008958FEF9FEF0895FC01918D828D09
:10071000981731F0828DE80FF11D858D90E00895D6
:100720008FEF9FEF0895FC01918D228D892F90E02E
:10073000805C9F4F821B91098F739927089581E9EF
:1007400093E00E94930321E0892B09F420E0822F9B
:10075000089580E090E0892B29F00E949F03811189
:100760000C9400000895FC01A48DA80FB92FB11DB1
:10077000A35ABF4F2C91848D90E001968F739927D7
:10078000848FA689B7892C93A089B1898C918370B5
:1007900080648C93938D848D981306C00288F389AE
:1007A000E02D80818F7D80830895EF92FF920F93DB
:1007B0001F93CF93DF93EC0181E0888F9B8D8C8D0D
:1007C00098131AC0E889F989808185FF15C09FB701
:1007D000F894EE89FF896083E889F98980818370C4
:1007E000806480839FBF81E090E0DF91CF911F9173
:1007F0000F91FF90EF900895F62E0B8D10E00F5F94
:100800001F4F0F731127E02E8C8D8E110CC00FB669
:1008100007FCFACFE889F989808185FFF5CFCE0101
:100820000E94B303F1CFEB8DEC0FFD2FF11DE35AC6
:10083000FF4FF0829FB7F8940B8FEA89FB89808184
:100840008062CFCFCF93DF93EC01888D8823B9F0FE
:10085000AA89BB89E889F9898C9185FD03C08081CB
:1008600086FD0DC00FB607FCF7CF8C9185FFF2CF48
:10087000808185FFEDCFCE010E94B303E9CFDF91E8
:10088000CF910895FC01858183FB882780F9089525
:10089000FC01858183FF03C08581877F858308955F
:1008A000FC018581843018F08581886085830895F6
:1008B000CF93DF93EC018D8183FD1CC08D8184FF7C
:1008C00019C0809138048F5F8093380485E08D8350
:1008D000E881F9810280F381E02DCE01099584E061
:1008E0008D838091380481508093380481E0DF91BA
:1008F000CF91089580E0FBCFCF93DF93FC0125815A
:10090000223050F0EC010190F081E02D0190F08157
:10091000E02D099584E08D83DF91CF9108952F928A
:100920003F924F925F926F927F928F929F92AF927F
:10093000BF92CF92DF92EF92FF920F931F93CF93CC
:10094000DF93EB012DB63EB628823982EC01288078
:1009500039804FB6F8943EBE2DBE4FBEDF91CF9189
:100960001F910F91FF90EF90DF90CF90BF90AF90CD
:100970009F908F907F906F905F904F903F902F90BF
:100980000895CF93DF93EC018A819B81BE01685F5C
:100990007F4F009709F42AC0FC0125812C72243076
:1009A00029F5909335048093340490933704809311
:1009B000360408960E948F040FB6F89486B515B2D7
:1009C00090912E040FBE10FE03C08F3F09F091508E
:1009D00011240024990F990F880F001C880F001C08
:1009E00090299F878E87DF91CF91089510923704C9
:1009F0001092360482E394E0DDCF20913804211177
:100A000002C00C94C1040895CF93DF938091360403
:100A100090913704009709F42FC0FC014485558557
:100A20004115510509F10FB6F89426B515B230916C
:100A30002E040FBE10FE03C02F3F09F031501124C9
:100A40000024330F330F220F001C220F001C30290B
:100A500066857785261B370B241735070CF46DC088
:100A6000DF91CF910C94FD0420913804211165C0D1
:100A7000DF91CF910C94C1048091380481115DC045
:100A8000C0918F03D091900320918D0330918E03FC
:100A90002C173D0759F0E881F9810680F781E02D98
:100AA000CE0109950A80DB81C02DEECF8091340400
:100AB00090913504892B09F02DC0209709F43DC091
:100AC00080913B0490913C04892B01F10FB6F8947E
:100AD00086B515B290912E040FBE10FE03C08F3F55
:100AE00009F0915011240024990F990F880F001CD0
:100AF000880F001C90294E855F85841B950B4091C3
:100B00003D0450913E0484179507BCF030933504A2
:100B100020933404C0913404D0913504E881F981E4
:100B20000680F781E02DCE0109958A819B81909303
:100B3000350480933404892B69F7DF91CF910895B0
:100B40008F929F92AF92BF92CF92DF92EF92FF92DD
:100B50006B017C010E943D024B015C01C114D10478
:100B6000E104F104E9F00E9404050E943D026819C5
:100B700079098A099B09683E73408105910570F3E4
:100B800021E0C21AD108E108F10888EE880E83E05E
:100B9000981EA11CB11CC114D104E104F10429F771
:100BA000FF90EF90DF90CF90BF90AF909F908F908D
:100BB0000895EF92FF920F931F93CF93DF937C01E1
:100BC000E0918103F091820320813091800381E0E4
:100BD00090E001C0880F3A95EAF7809582238083E0
:100BE000E701062F10E0CE018E199F0980179107AB
:100BF00024F489910E94F600F6CFE0918103F091F0
:100C0000820380819091800321E030E001C0220FB7
:100C10009A95EAF7822B808360918A0370E090E0D6
:100C200080E0DF91CF911F910F91FF90EF900C9496
:100C3000A005DC0115962C91159722FF29C0159669
:100C40002C91287259F4909337048093360462E310
:100C500074E008960E948F0481E008950FB6F8941E
:100C600026B515B230912E040FBE10FE03C02F3FE3
:100C700009F0315011240024330F330F220F001CD0
:100C8000220F001C3029FC013787268780E0089559
:100C900015962C91159721FFF9CFED91FC910480C9
:100CA000F581E02D0995F2CF0895DC011696ED91BE
:100CB000FC91309709F009940895DC011696ED91A6
:100CC000FC91309709F0099408958F929F92AF920A
:100CD000BF92CF92DF92EF92FF92FC01828158E5A2
:100CE000C52E52E0D52EC81AD10887FDD394CC0C5E
:100CF000DD1CCC0CDD1C0D2C000CEE08FF088181E6
:100D000078E8872E912C881A910887FD9394880C97
:100D1000991C880C991C092C000CAA08BB0880811E
:100D20008F3FD1F190E0FC01EE0FFF1FE80FF91F9C
:100D3000EA5CFC4F8181928133E0880F991F3A95DC
:100D4000E1F7B0E0A0E044E0B595A79597958795C9
:100D50004A95D1F702969C012F5F3F4F032E000C5E
:100D6000440B550B281939094A095B09A4EBB0E07B
:100D70000E943615A7019601281939094A095B090D
:100D80000E941715C901FF90EF90DF90CF90BF90A0
:100D9000AF909F908F90089590E080E0DCCFCF924D
:100DA000DF92EF92FF92CF93DF93EC01603282E00B
:100DB0007807CCF5653B710514F064EB70E0898130
:100DC00028E830E0281B310987FD3395220F331FB7
:100DD000220F331F6901330FEE08FF088A8128E5CF
:100DE00032E0281B310987FD3395220F331F220F74
:100DF000331F032E000C440B550B2C193D094E09D3
:100E00005F09DB0177FF02C0B0E0A0E00E9441155E
:100E100024EB30E040E050E00E941715C20ED31ED4
:100E2000E41EF51EB601E881EC3070F5298188E8F2
:100E300090E0821B910927FD9395880F991F880FD9
:100E4000991F681779077CF02A8188E592E0821B58
:100E5000910927FD9395880F991F880F991F68178F
:100E600079070CF4CB010297880F991F4FB7F894BC
:100E70002E2F30E0F901EE0FFF1FE20FF31FEA5CA7
:100E8000FC4F928381834FBFDF91CF91FF90EF9012
:100E9000DF90CF900895CF93DF93EC0186EC95E03F
:100EA0000E946506019718161906A4F49093B805D8
:100EB0008093B7056091B7057091B80586EC95E011
:100EC0000E94CF06BE01DD0F880B990BDF91CF91F9
:100ED0000C94A0051092B8051092B705EBCFCF93F4
:100EE000DF93EC0189EC95E00E94650601971816E6
:100EF0001906A4F49093BA058093B9056091B905D9
:100F00007091BA0589EC95E00E94CF06BE01DD0F15
:100F1000880B990BDF91CF910C94A0051092BA0524
:100F20001092B905EBCF8DEB95E00E946506019616
:100F3000843B910594F49093B2058093B105609140
:100F4000B1057091B2058DEB95E00E94CF066FE080
:100F500070E080E090E00C94A00584EB90E0EBCF93
:100F60008DEB95E00E94650601971816190694F41A
:100F70009093B2058093B1056091B1057091B2056F
:100F80008DEB95E00E94CF066FE070E080E090E08E
:100F90000C94A0051092B2051092B105EDCF80EC33
:100FA00095E00E9465060196843B910594F4909328
:100FB000B4058093B3056091B3057091B40580ECDE
:100FC00095E00E94CF066FE070E080E090E00C9426
:100FD000A00584EB90E0EBCF80EC95E00E946506E5
:100FE00001971816190694F49093B4058093B305ED
:100FF0006091B3057091B40580EC95E00E94CF0636
:101000006FE070E080E090E00C94A0051092B405D1
:101010001092B305EDCF83EC95E00E946506019731
:101020001816190694F49093B6058093B50560914F
:10103000B5057091B60583EC95E00E94CF066AE095
:1010400070E080E090E00C94A0051092B60510923C
:10105000B505EDCF83EC95E00E9465060196843BD3
:10106000910594F49093B6058093B5056091B5050C
:101070007091B60583EC95E00E94CF066AE070E0BF
:1010800080E090E00C94A00584EB90E0EBCFCF9350
:10109000DF93EC0186EC95E00E9465060196843BA7
:1010A0009105A4F49093B8058093B7056091B705B6
:1010B0007091B80586EC95E00E94CF06BE01DD0F69
:1010C000880B990BDF91CF910C94A00584EB90E0F5
:1010D000E9CFCF93DF93EC0189EC95E00E946506A0
:1010E0000196843B9105A4F49093BA058093B905C9
:1010F0006091B9057091BA0589EC95E00E94CF0620
:10110000BE01DD0F880B990BDF91CF910C94A005E8
:1011100084EB90E0E9CFCF93DF93EC018CEC95E08A
:101120000E9465060196843B9105A4F49093BC054A
:101130008093BB056091BB057091BC058CEC95E07C
:101140000E94CF06BE01DD0F880B990BDF91CF9176
:101150000C94A00584EB90E0E9CFCF93DF93EC01F2
:101160008CEC95E00E946506019718161906A4F408
:101170009093BC058093BB056091BB057091BC0545
:101180008CEC95E00E94CF06BE01DD0F880B990B19
:10119000DF91CF910C94A0051092BC051092BB0575
:1011A000EBCF1F93CF93DF93EC01162F88818C3008
:1011B00008F04EC061E0812F0E940C028881282F28
:1011C00030E0F901EE0FFF1FE20FF31FEA5CFC4F66
:1011D0001F736081607C612B608319821A822CE00E
:1011E000622F0E94D216829FB001112430E020E0CD
:1011F000AB01420F531FFA01EE0FFF1FE40FF51F63
:10120000EA5CFC4F908196FD16C02F5F3F4F2C305B
:10121000310571F781110FC01092800082E0809338
:1012200081001092850010928400B19A80916F0025
:10123000826080936F00E8818E2F90E0FC01EE0FBA
:10124000FF1FE80FF91FEA5CFC4F808180648083F8
:101250008881DF91CF911F910895CF93DF93D0E0E4
:10126000C0E048EC58EC60E070E0CE010E948D00D8
:101270000E94620264EF71E080E090E00E94A005AD
:101280002196C530D10569F7C4E0D0E040E050E0D8
:10129000BA01CE010E948D000E94620264EF71E0EB
:1012A00080E090E00E94A005219780F7C1E0D0E0A7
:1012B00040E050E06FEF70E0CE010E948D0021967B
:1012C00040E050E06FEF70E0CE010E948D0040E002
:1012D0005FEF6FEF70E0CE0101960E948D0040E05D
:1012E0005FEF6FEF70E0CE0102960E948D0040E04C
:1012F0005FEF60E070E0CE0103960E948D0040E059
:101300005FEF60E070E0CE0104960E948D004FEF29
:1013100050E060E070E0CE0105960E948D004FEF36
:1013200050E060E070E0CE0106960E948D004FEF25
:101330005FEF60E070E0CE0107960E948D004FEFF6
:101340005FEF60E070E0CE0108960E948D004FEFE5
:1013500050E0BA01CE0109960E948D004FEF50E097
:10136000BA01CE010A960E948D004FEF50E0BA01FB
:10137000CE0102970E948D004FEF50E0BA01CE01DE
:1013800003970E948D004FEF5FEF60E070E0CE01A9
:1013900004970E948D004FEF5FEF60E070E0CE0198
:1013A00005970E948D004FEF50E060E070E0CE01A5
:1013B00006970E948D004FEF50E060E070E0CE0194
:1013C00007970E948D0040E05FEF60E070E0CE0183
:1013D00008970E948D0040E05FEF60E070E0CE0172
:1013E00009970E948D0040E05FEF6FEF70E0CE0143
:1013F0000A970E948D0040E05FEF6FEF70E0CE0132
:101400000B970E948D0040E050E06FEF70E0CE013E
:101410000C970E948D000E94620264EF71E080E0F0
:1014200090E00E94A005CD30D10509F041CFDF91B9
:10143000CF910895DC012D913C914BE750E0421B88
:10144000530B141615061CF0A9014B575109DB016B
:10145000ED91FC912BE730E02E1B3F0B121613068B
:101460001CF09F012B5731092417350734F48BE703
:1014700090E0FB019183808308952BE730E0DC014D
:101480002D933C9308958091A1059091A20597FD1D
:1014900008C061E00E940C0260E08091A1050E94FA
:1014A000C00181E080939C050E9462026091A305C7
:1014B000663029F12091A4053091A5056150C9F04D
:1014C00070E08FEF95E00E94DE16F90140919F05D4
:1014D0005091A005CF01821B930B8417950760F4F0
:1014E0004081469FC001479F900D11249083319603
:1014F000EDCF70E060E0E9CF86E08093A30508952A
:101500008F929F92AF92BF92CF92DF92EF92FF9213
:101510000F931F93CF93DF93CDB7DEB729970FB605
:10152000F894DEBF0FBECDBF2FB7F89460915C0377
:1015300070915D0380915E0390915F032FBF0091D6
:101540008603109187032091880330918903601BE3
:10155000710B820B930B0E941B166B017C0120E028
:1015600030E84BEB54E40E94CD1618160CF565E0FC
:1015700080E291E00E94D90569E087E191E00E9454
:10158000D90580918B03882329F065E082E191E001
:101590000E94D90580918C03882329F069E089E0B5
:1015A00091E00E94D90569E080E091E00E94D905B0
:1015B00060918A0370E090E080E00E941D164B016C
:1015C0005C01AC019B01C701B6010E94E71587FFD2
:1015D0000AC0A7019601C501B4010E947A150E94B4
:1015E000EC150E94A0058091780390917903909367
:1015F000770380937603E0917E03F0917F0320814F
:1016000030917D0381E090E0AC0101C0440F3A9538
:10161000EAF7242B2083E0917B03F0917C03208167
:1016200030917A03AC0101C0440F3A95EAF7242BBC
:101630002083E0918103F091820320813091800327
:1016400001C0880F3A95EAF780958223808387E06E
:1016500090E00197F1F7FE01339687E0DF011D92DC
:101660008A95E9F781E0898382E48A838E010F5F9E
:101670001F4F6E01BAE0CB0ED11C90E6E92E93E02D
:10168000F92EF80181918F010E94F600D7018D9308
:101690007D010C151D05A9F780916103893779F447
:1016A00009E613E085E7E82E83E0F82E80E00E944B
:1016B000F600F80181938F01EE16FF06B9F7E0916D
:1016C0008103F091820380819091800321E030E0DA
:1016D00001C0220F9A95EAF7822B808380916303E1
:1016E0009091640390937903809378032FB7F894D3
:1016F00080915C0390915D03A0915E03B0915F03C4
:101700002FBF8093860390938703A0938803B093A1
:10171000890329960FB6F894DEBF0FBECDBFDF91C7
:10172000CF911F910F91FF90EF90DF90CF90BF90DE
:10173000AF909F908F9008952F923F924F925F921B
:101740006F927F928F929F92AF92BF92CF92DF92D1
:10175000EF92FF920F931F93CF93DF93CDB7DEB736
:101760002E970FB6F894DEBF0FBECDBF4090320368
:10177000509033034114510409F049C30E94800A78
:101780008091660390E090933103809330038091C1
:10179000650390E090932F0380932E03809168035C
:1017A00090E090932D0380932C038091670390E049
:1017B00090932B0380932A036CE273E08AE293E018
:1017C0000E941A0A60E373E08EE293E00E941A0A14
:1017D00080912C0390912D038B37910559F08A311C
:1017E0009105C8F50E94EC0764E170E080E090E0AC
:1017F0000E94A00580913003909131038B379105B1
:1018000061F08A31910508F05DC00E942A086FE0FE
:1018100070E080E090E00E94A00580912A03909102
:101820002B038B37910531F08A31910508F081C087
:101830000E94B00780912E0390912F038B37910562
:1018400009F4BFC08A31910508F0AAC090E080E099
:101850000E94AD08B0C09C01225E31092F313105D4
:1018600018F40E94CF07C0CF9C012A5131092931B9
:10187000310508F4B7CF2F5A31092931310588F3E2
:101880002A563F4F2931310508F4ACCF2D57310985
:101890002931310530F32C593F4F2931310508F4F6
:1018A000A1CF2B54310929313105D8F22E5C3F4F9D
:1018B0002631310508F496CF8C5791094B9708F0E3
:1018C00099CFCFCF9C01225E31092F31310518F419
:1018D0000E940B089CCF9C012A5131092931310506
:1018E00008F493CF2F5A31092931310588F32A564C
:1018F0003F4F2931310508F488CF2D57310929315F
:10190000310530F32C593F4F2931310508F47DCF93
:101910002B54310929313105D8F22E5C3F4F263145
:10192000310508F472CF8C5791094B9708F075CFA9
:10193000CFCF9C01225E31092F31310518F40E946E
:10194000930778CF9C012A5131092931310508F4D8
:101950006FCF2F5A31092931310588F32A563F4F6D
:101960002931310508F464CF2D573109293131056A
:1019700030F32C593F4F2931310508F459CF2B54FE
:10198000310929313105D8F22E5C3F4F2431310520
:1019900008F44ECF8E579109499708F04BCFCFCF1F
:1019A0009C01225E31092F31310508F088C190E099
:1019B00080E00E948B0864E170E080E090E00E948B
:1019C000A0050091780310917903009510958AE0A5
:1019D00090E004FD09C080E190E00E94A501882309
:1019E00009F49FC190E080E00E94470800917803CD
:1019F00010917903009510958AE090E005FD09C0EB
:101A000080E290E00E94A501882309F49AC190E049
:101A100080E00E9469088091780390917903809515
:101A2000909597FD02C095FF9CC161E08EE00E94F9
:101A3000C0018091780390917903209176033091D1
:101A40007703392734FF57C08095909594FF53C092
:101A500080912803909129032CE0289FF001299F71
:101A6000F00D1124E055FD4F2091B1053091B205E4
:101A7000318320832091B3053091B40533832283D1
:101A80002091B5053091B605358324832091B705A3
:101A90003091B805378326832091B9053091BA0576
:101AA000318720872091BB053091BC053387228781
:101AB000019690932903809328039093AF0280931B
:101AC000AE020A97C4F0109229031092280361E035
:101AD0008EE00E94C0016CE271E080E090E00E9424
:101AE000A00560E08EE00E94C0016CE271E080E041
:101AF00090E00E94A0058091780390917903209155
:101B0000760330917703392736FB222720F92223E9
:101B100009F47DC18095909596FB882780F98823EC
:101B200009F475C161E08EE00E94C0016CE271E0D1
:101B300080E090E00E94A00560E08EE00E94C0017D
:101B40006CE271E080E090E00E94A00561E08EE030
:101B50000E94C0016CE271E080E090E00E94A0056C
:101B600060E08EE00E94C0016CE271E080E090E0F5
:101B70000E94A00520EB32E03E872D878091AE02C7
:101B80009091AF02481659060CF011C1FE01319632
:101B90008D859E850C96AD85BE852D913D91BE8728
:101BA000AD87219331938A179B07A9F78DEB95E0B9
:101BB0000E9465068C0180EC95E00E9465067C0120
:101BC00083EC95E00E9465066C0186EC95E00E942E
:101BD00065065C0189EC95E00E9465064C018CEC81
:101BE00095E00E9465063C0184EB282E312C89810A
:101BF0009A81081719070CF0C3C00F5F1F4FB80177
:101C00008DEB95E00E94CF068B819C81E816F9064A
:101C10000CF0B9C0BFEFEB1AFB0AB70180EC95E0FE
:101C20000E94CF068D819E81C816D9060CF0AFC0E8
:101C30003FEFC31AD30AB60183EC95E00E94CF06AA
:101C40008F819885A816B9060CF0A5C09FEFA91A38
:101C5000B90AB50186EC95E00E94CF0689859A8580
:101C6000881699060CF09BC0BFEF8B1A9B0AB40133
:101C700089EC95E00E94CF068B859C8568167906D5
:101C80000CF091C03FEF631A730AB3018CEC95E03E
:101C90000E94CF066FE070E080E090E00E94A00517
:101CA00091E0291A310809F0A2CF6CE271E080E0DE
:101CB00090E00E94A005AFEF4A1A5A0A5FCF9C013C
:101CC0002A5131092931310518F485E090E0C0CD61
:101CD0009C01295C31092931310518F485E090E037
:101CE00068CE9C01235331092931310570F32D57FA
:101CF00031092931310590F32C593F4F29313105F4
:101D000020F32B5431092931310540F32E5C3F4F2C
:101D100024313105D0F28E579109499708F051CE00
:101D2000DDCF8AE090E006FD09C080E490E00E94EB
:101D3000A501882309F45ACE90E080E00E944B0769
:101D400055CE8AE090E007FD09C080E890E00E944F
:101D5000A501882309F45FCE90E080E00E946F0720
:101D60005ACE80E090E80E94A501811107C080E072
:101D700090E20E94A501882309F45BCE60E056CE74
:101D8000015011093CCF21E0E21AF10846CF81E071
:101D9000C81AD10850CFA1E0AA1AB1085ACF21E041
:101DA000821A910864CF81E0681A71086ECF109290
:101DB00029031092280361E08EE00E94C00168EBC5
:101DC0007BE080E090E00E94A00560E08EE00E9451
:101DD000C00162E370E080E090E02E960FB6F894C8
:101DE000DEBF0FBECDBFDF91CF911F910F91FF904E
:101DF000EF90DF90CF90BF90AF909F908F907F90AB
:101E00006F905F904F903F902F900C94A0052E966E
:101E10000FB6F894DEBF0FBECDBFDF91CF911F91FB
:101E20000F91FF90EF90DF90CF90BF90AF909F9079
:101E30008F907F906F905F904F903F902F9008957C
:101E4000CF93DF93FC0120853185232B09F48BC0D0
:101E5000EC01858181FF57C0F89462E374E0CB0107
:101E60000E948F048D8182FF3AC085E08D838D8131
:101E700083FD2DC0E881F9810684F785E02DCE0130
:101E800009952C853D852115310509F10FB6F8948A
:101E900086B515B290912E040FBE10FE03C08F3F81
:101EA00009F0915011240024990F990F880F001CFC
:101EB000880F001C90294E855F85841B950B821727
:101EC00093070CF4D4CFCE010E94FD04D0CF8091B3
:101ED00038048111CCCFCE010E94C104C8CF8091BB
:101EE000320490913304EDB7FEB7A885B9859D0102
:101EF000215031093987288720812C9331978E17FB
:101F00009F0799F77894CE010E947C0420913904B0
:101F100030913A043D872C8780913D0490913E0496
:101F2000820F931F90933E0480933D040FB6F89464
:101F300086B515B290912E040FBE10FE03C08F3FE0
:101F400009F0915011240024990F990F880F001C5B
:101F5000880F001C90299F878E87CE014096DF91C5
:101F6000CF910C949401DF91CF910895FC010190E1
:101F70000020E9F73197AF01481B590BBC0181E9FB
:101F800093E00C943503CF93DF930E94B60FEC01DE
:101F90008BE891E00E94B60F8C0F9D1FDF91CF91CF
:101FA0000895CF93DF9361E08EE00E940C02E091F0
:101FB000A103F091A20382E08083E091A103F0915C
:101FC000A2031082E0919D03F0919E031082E091A4
:101FD0009F03F091A00380E180831092A903E09118
:101FE000A503F091A60386E08083E091A303F0911E
:101FF000A403808180618083E091A303F091A40316
:10200000808188608083E091A303F091A4038081A4
:1020100080688083E091A303F091A40380818F7D89
:10202000808362E070E08DEB95E00E94D10863E070
:1020300070E080EC95E00E94D10864E070E083ECF1
:1020400095E00E94D10865E070E086EC95E00E9482
:10205000D10866E070E089EC95E00E94D10867E065
:1020600070E08CEC95E00E94D1088DEB95E00E9429
:1020700065069093B2058093B10580EC95E00E94CF
:1020800065069093B4058093B30583EC95E00E94B8
:1020900065069093B6058093B50586EC95E00E94A1
:1020A00065069093B8058093B70589EC95E00E948A
:1020B00065069093BA058093B9058CEC95E00E9473
:1020C00065069093BC058093BB056CE271E080E0EF
:1020D00090E00E94A005EAE9F0E084910E946F017F
:1020E00080937A03E8EBF0E0E491F0E0EE0FFF1F5D
:1020F000EC55FF4F8591949190937C0380937B03E3
:10210000ECE9F0E084910E946F0180937D03EAEB9B
:10211000F0E0E491F0E0EE0FFF1FEC55FF4F8591EA
:10212000949190937F0380937E03EBE9F0E0849198
:102130000E946F0180938003E9EBF0E0E491F0E00E
:10214000EE0FFF1FEC55FF4F859194919093820302
:1021500080938103EDE9F0E084910E946F01809308
:102160008303EBEBF0E0E491F0E0EE0FFF1FE859A2
:10217000FF4F85919491909385038093840361E050
:102180008AE00E940C0261E08BE00E940C0261E098
:102190008CE00E940C0260E08DE00E940C0261E085
:1021A0008DE00E94C001E0917E03F0917F03808169
:1021B00090917D03C1E0D0E09E0101C0220F9A956D
:1021C000EAF7822B8083E0917B03F0917C0380818E
:1021D00090917A039E0101C0220F9A95EAF7822B13
:1021E00080830E94800A0E94800A8091610381346A
:1021F00021F0833711F0893701F5CBE0D0E065E0BD
:1022000080E291E00E94D90569E087E191E00E94B7
:10221000D90569E080E091E00E94D9050E94800A1A
:1022200080916103833791F0219709F442C0809136
:102230008A03865F80938A03E2CFD0933303C093EF
:1022400032038EE891E00E94C30F0DC080E0282F7A
:1022500030E0309333032093320381112CC084E0AB
:1022600092E00E94B60F65E080E291E00E94D905FD
:1022700065E082E191E00E94D90569E080E091E0AB
:102280000E94D905C1E0C0938B0365E080E291E034
:102290000E94D90569E089E091E00E94D90569E0D2
:1022A00080E091E00E94D905C0938C03DF91CF912B
:1022B000089582E0CCCF8DE292E0C5CF1F920F92BD
:1022C0000FB60F9211242F933F938F939F93AF9349
:1022D000BF9380915C0390915D03A0915E03B091E8
:1022E0005F0330915A0323E0230F2D3758F50196F1
:1022F000A11DB11D20935A0380935C0390935D034D
:10230000A0935E03B0935F0380912E0490912F04FD
:10231000A0913004B09131040196A11DB11D8093AC
:102320002E0490932F04A0933004B0933104BF91F6
:10233000AF919F918F913F912F910F900FBE0F9072
:102340001F90189526E8230F0296A11DB11DD2CF2C
:102350001F920F920FB60F9211242F933F934F931A
:102360005F936F937F938F939F93AF93BF93EF93FD
:10237000FF9381E993E00E94B303FF91EF91BF9136
:10238000AF919F918F917F916F915F914F913F910D
:102390002F910F900FBE0F901F9018951F920F92C4
:1023A0000FB60F9211242F938F939F93EF93FF9368
:1023B000E091A103F091A2038081E091A703F09145
:1023C000A80382FD1BC090818091AA038F5F8F7349
:1023D0002091AB03821741F0E091AA03F0E0EF56A1
:1023E000FC4F958F8093AA03FF91EF919F918F915E
:1023F0002F910F900FBE0F901F9018958081F4CFF2
:102400001F920F920FB60F9211242F933F934F9369
:102410005F936F937F938F939F93AF93BF93CF936C
:10242000DF93EF93FF9380913403C0913503D0E0A5
:1024300087FF24C01092850010928400809134039D
:102440008F5F8093340380913403082E000C990B26
:102450008C179D0724F4809134038C30C4F1809153
:10246000840090918500049680349C4908F47AC0D9
:102470008091840090918500049676C08091340309
:10248000082E000C990B8C179D07C4F6E0913403BD
:102490008E2FEE0F990BFC01EE0FFF1FE80FF91FB7
:1024A000EA5CFC4F808186FFC9CFE09134038E2F18
:1024B000EE0F990BFC01EE0FFF1FE80FF91FEA5C0E
:1024C000FC4F808160E08F730E94C001B7CF2091E4
:1024D000840030918500E09134038E2FEE0F990B2C
:1024E000FC01EE0FFF1FE80FF91FEA5CFC4F818132
:1024F0009281820F931F9093890080938800E091CE
:1025000034038E2FEE0F990BFC01EE0FFF1FE80F27
:10251000F91FEA5CFC4F808186FF11C0E091340313
:102520008E2FEE0F990BFC01EE0FFF1FE80FF91F26
:10253000EA5CFC4F808161E08F730E94C001FF91D3
:10254000EF91DF91CF91BF91AF919F918F917F914B
:102550006F915F914F913F912F910F900FBE0F9010
:102560001F90189580E49CE99093890080938800DF
:102570008FEF80933403E3CFFC0180918F03909120
:10258000900393838283F0939003E0938F0381E021
:102590008483858308950F931F93CF93DF93EC017A
:1025A0008B018FE291E0998388831F821E82CE0186
:1025B0000E94BC1281E491E099838883CE01409609
:1025C0000E94940180915B038F5F80935B031B8665
:1025D0001A86198618861F821E82EA81FB818091E5
:1025E0008D0390918E039B838A83D0938E03C09337
:1025F0008D03E817F90759F0F0939003E0938F03E8
:10260000228133818217930761F4D383C28382E0EE
:102610008C83B801CE01DF91CF911F910F910C9463
:102620008401F901EDCFFC01909135039C3098F4C1
:1026300081E0890F809335039083892F90E0FC011E
:10264000EE0FFF1FE80FF91FEA5CFC4F88EB9BE0E1
:102650009283818308958FEF80830895CF931092A2
:1026600094031092930388EE93E0A0E0B0E080938F
:10267000950390939603A0939703B093980385E5F1
:1026800091E0909392038093910385EC90E0909376
:102690009E0380939D0384EC90E09093A00380932D
:1026A0009F0380EC90E09093A2038093A10381ECC0
:1026B00090E09093A4038093A30382EC90E0909326
:1026C000A6038093A50386EC90E09093A8038093E3
:1026D000A7031092AA031092AB031092AC031092BE
:1026E000AD0380E991E090933A048093390490938C
:1026F0003C0480933B0410923E0410923D041092DF
:102700003504109234041092370410923604C1E05C
:10271000C093380480912E0490912F04A09130042E
:10272000B09131048DEB95E00E94131380EC95E09D
:102730000E94131383EC95E00E94131386EC95E03E
:102740000E94131389EC95E00E9413138CEC95E022
:102750000E94131310929C051092A3051092AA05D3
:102760001092AB051092AC051092AD05C093A9056F
:10277000C093A6051092A70582E08093A805C09398
:102780009B058CE090E09093A00580939F050E94AC
:10279000F8169093A5058093A405009709F44FC0FF
:1027A0002CE0FC0111922A95E9F784E090E09093E7
:1027B0009E0580939D058FE090E09093A205809305
:1027C000A10580919C05882341F061E08FE00E9483
:1027D0000C0260E08FE00E94C001EDEBF0E0E491BC
:1027E000F0E0EE0FFF1FEC55FF4F85919491909311
:1027F000AF058093AE05EFE9F0E0E491E093B0051A
:1028000065ED74E083E895E00E94CB128BE791E0E0
:102810009093840580938305C2E0C09388056FE39D
:1028200074E08BE695E00E94CB1287E691E09093EE
:102830006C0580936B05C0937005CF91089510923D
:10284000A00510929F0510929E0510929D05B3CF92
:10285000789484B5826084BD84B5816084BD85B57B
:10286000826085BD85B5816085BD80916E00816087
:1028700080936E001092810080918100826080932D
:10288000810080918100816080938100809180002F
:102890008160809380008091B10084608093B1005A
:1028A0008091B00081608093B00080917A00846054
:1028B00080937A0080917A00826080937A00809180
:1028C0007A00816080937A0080917A00806880939A
:1028D0007A001092C10080913B0490913C04909347
:1028E0003E0480933D0480918F03909190039093D8
:1028F000350480933404809134049091350400971A
:1029000071F0DC01ED91FC910480F581E02D0995D9
:10291000E0913404F091350482819381E8CF1092E4
:102920003804C0E0D0E00E9404052097E1F30E9443
:102930009F038823C1F30E940000F5CFFC01A09102
:102940008F03B0919003A817B90759F4828193813E
:102950009093900380938F0315820895DC01892B57
:10296000D9F312968D919C9113978E179F07B1F70B
:102970008281938113969C938E931297EDCFCF9380
:10298000DF93EC018FE291E099838883CE010E946E
:102990009E1480918D0390918E038C179D0731F4C6
:1029A0008A819B8190938E0380938D038C818430E8
:1029B00011F0823089F480913D0490913E042C8581
:1029C0003D85821B930B90933E0480933D04809140
:1029D0005B03815080935B03DF91CF910895CF9388
:1029E000DF93C1E4D1E0D0936C05C0936B058BE617
:1029F00095E00E94BF14D0938405C093830583E8BB
:102A000095E00E94BF148091A4059091A5050E94B5
:102A100094178091A1059091A20597FD05C060E0F3
:102A2000DF91CF910C940C02DF91CF910895052E88
:102A300097FB1EF400940E942E1557FD07D00E94AC
:102A4000491507FC03D04EF40C942E155095409573
:102A5000309521953F4F4F4F5F4F0895909580954A
:102A6000709561957F4F8F4F9F4F08950E946B1512
:102A7000A59F900DB49F900DA49F800D911D1124D2
:102A80000895B7FF0C9436150E943615821B930BE0
:102A90000895A1E21A2EAA1BBB1BFD010DC0AA1F9F
:102AA000BB1FEE1FFF1FA217B307E407F50720F0B7
:102AB000A21BB30BE40BF50B661F771F881F991F32
:102AC0001A9469F760957095809590959B01AC017B
:102AD000BD01CF010895A29FB001B39FC001A39F84
:102AE000700D811D1124911DB29F700D811D112447
:102AF000911D08955058BB27AA270E9492150C9447
:102B000093160E94851638F00E948C1620F039F436
:102B10009F3F19F426F40C9482160EF4E095E7FB1F
:102B20000C947C16E92F0E94A41658F3BA1762077A
:102B300073078407950720F079F4A6F50C94C61660
:102B40000EF4E0950B2EBA2FA02D0B01B9019001C8
:102B50000C01CA01A0011124FF27591B99F0593F0C
:102B600050F4503E68F11A16F040A22F232F342F54
:102B70004427585FF3CF469537952795A795F040A2
:102B80005395C9F77EF41F16BA0B620B730B840BB7
:102B9000BAF09150A1F0FF0FBB1F661F771F881F6F
:102BA000C2F70EC0BA0F621F731F841F48F48795C7
:102BB00077956795B795F7959E3F08F0B0CF9395B9
:102BC000880F08F09927EE0F9795879508950E9432
:102BD000581608F481E008950E94AC1688F09F57BB
:102BE00098F0B92F9927B751B0F0E1F0660F771F31
:102BF000881F991F1AF0BA95C9F714C0B13091F027
:102C00000E94C616B1E008950C94C616672F782F5F
:102C10008827B85F39F0B93FCCF3869577956795EB
:102C2000B395D9F73EF490958095709561957F4F57
:102C30008F4F9F4F0895E89409C097FB3EF49095FD
:102C40008095709561957F4F8F4F9F4F9923A9F085
:102C5000F92F96E9BB279395F69587957795679514
:102C6000B795F111F8CFFAF4BB0F11F460FF1BC058
:102C70006F5F7F4F8F4F9F4F16C0882311F096E9EB
:102C800011C0772321F09EE8872F762F05C0662399
:102C900071F096E8862F70E060E02AF09A95660F52
:102CA000771F881FDAF7880F9695879597F908950B
:102CB000990F0008550FAA0BE0E8FEEF161617064D
:102CC000E807F907C0F012161306E407F50798F0B5
:102CD000621B730B840B950B39F40A2661F0232BCE
:102CE000242B252B21F408950A2609F4A140A6954A
:102CF0008FEF811D811D089597F99F6780E870E02F
:102D000060E008959FEF80EC089500240A94161661
:102D1000170618060906089500240A9412161306C9
:102D2000140605060895092E0394000C11F4882357
:102D300052F0BB0F40F4BF2B11F460FF04C06F5F73
:102D40007F4F8F4F9F4F089557FD9058440F551F49
:102D500059F05F3F71F04795880F97FB991F61F01D
:102D60009F3F79F087950895121613061406551F94
:102D7000F2CF4695F1DF08C0161617061806991F00
:102D8000F1CF86957105610508940895E894BB27F5
:102D900066277727CB0197F908950E94581608F403
:102DA0008FEF0895991B79E004C0991F961708F0DA
:102DB000961B881F7A95C9F780950895AA1BBB1B9F
:102DC00051E107C0AA1FBB1FA617B70710F0A61B2B
:102DD000B70B881F991F5A95A9F780959095BC014C
:102DE000CD010895EE0FFF1F0590F491E02D099499
:102DF0000F931F93CF93DF938230910510F482E0FD
:102E000090E0E091D105F091D20530E020E0B0E013
:102E1000A0E0309799F42115310509F44AC0281B28
:102E2000390B24303105D8F58A819B8161157105F4
:102E300089F1FB0193838283FE0111C0408151819E
:102E40000281138148175907E0F04817590799F490
:102E5000109761F012960C93129713961C9332966A
:102E6000CF01DF91CF911F910F9108950093D1056C
:102E70001093D205F4CF2115310551F042175307B5
:102E800038F0A901DB019A01BD01DF01F801C1CFD2
:102E9000EF01F9CF9093D2058093D105CDCFFE01FC
:102EA000E20FF31F819391932250310939832883D4
:102EB000D7CF2091CF053091D005232B41F420911D
:102EC0002701309128013093D0052093CF05209120
:102ED0002501309126012115310541F42DB73EB76A
:102EE0004091290150912A01241B350BE091CF0517
:102EF000F091D005E217F307A0F42E1B3F0B281723
:102F0000390778F0AC014E5F5F4F2417350748F062
:102F10004E0F5F1F5093D0054093CF05819391933F
:102F20009FCFF0E0E0E09CCFCF93DF930097E9F0F4
:102F3000FC01329713821282A091D105B091D20583
:102F4000ED0130E020E01097A1F420813181820F63
:102F5000931F2091CF053091D0052817390709F02C
:102F600061C0F093D005E093CF05DF91CF91089534
:102F7000EA01CE17DF07E8F54A815B819E01411522
:102F80005105B1F7E901FB83EA8349915991C40FD7
:102F9000D51FEC17FD0761F4808191810296840FA3
:102FA000951FE90199838883828193819B838A831A
:102FB000F0E0E0E012968D919C9113970097B9F59F
:102FC0002D913C911197CD010296820F931F209174
:102FD000CF053091D0052817390739F6309751F5CC
:102FE0001092D2051092D105B093D005A093CF05D1
:102FF000BCCFD383C28340815181840F951FC817F2
:10300000D90761F44E5F5F4F88819981480F591F3E
:10301000518340838A819B8193838283211531056B
:1030200009F0B0CFF093D205E093D1059ECFFD011A
:10303000DC01C0CF13821282D7CF10E0C2E6D0E00D
:1030400004C0FE010E94F2162196C336D107C9F7CB
:04305000F894FFCF22
:10305400014300005A5A5A5A5A014F00FFFF030015
:103064000000014D000001014400010300000000C4
:1030740001430001000000D305800000000000545B
:10308400065D067C04580450044204480400000011
:103094000054065406200F190650044204480455EF
:1030A4000600000000D50335036203220493037174
:1030B40003850300000000430A5406200F1906503C
:1030C40004420448042D0900000000D10F540620D6
:1030D4000F19065004420448049C0B0D0A004E6F5D
:1030E40020636F6E74726F6C6C657220666F756EA0
:1030F400642C20636865636B20776972696E672C42
:103104002073656520726561646D652E7478742022
:10311400746F20656E61626C652064656275672EEC
:10312400207669736974207777772E62696C6C7086
:103134006F727465722E696E666F20666F7220748A
:10314400726F75626C6573686F6F74696E672074F3
:1031540069707300466F756E6420436F6E74726F8E
:103164006C6C65722C20636F6E666967757265643A
:10317400207375636365737366756C2000436F6EAB
:1031840074726F6C6C657220666F756E6420627504
:1031940074206E6F7420616363657074696E672058
:1031A400636F6D6D616E64732E2073656520726547
:1031B40061646D652E74787420746F20656E61622D
:1031C4006C652064656275672E2056697369742086
:1031D4007777772E62696C6C706F727465722E6982
:1031E4006E666F20666F722074726F75626C6573A1
:0E31F400686F6F74696E6720746970730000F5
:00000001FF
