:100000000C945D000C9485000C9485000C94850084
:100010000C9485000C9485000C9485000C9485004C
:100020000C9485000C9485000C9485000C9474014C
:100030000C9485000C9485000C9485000C9485002C
:100040000C942A010C9485000C9485000C94850076
:100050000C9485000C9485000C9485000C9485000C
:100060000C9485000C9485000000000024002700FB
:100070002A0000000000250028002B0004040404CE
:100080000404040402020202020203030303030342
:10009000010204081020408001020408102001021F
:1000A00004081020000000080002010000030407FB
:1000B0000000000000000000640311241FBECFEF09
:1000C000D8E0DEBFCDBF11E0A0E0B1E0ECEDF7E09D
:1000D00002C005900D92A030B107D9F721E0A0E051
:1000E000B1E001C01D92A233B207E1F710E0CDE507
:1000F000D0E004C02197FE010E94E603CC35D10771
:10010000C9F70E9430020C94EC030C94000090E0BC
:10011000FC01EC55FF4F2491FC01E057FF4F349157
:10012000FC01E458FF4FE491EE23C9F0222339F09B
:10013000233001F1A8F4213019F1223029F1F0E047
:10014000EE0FFF1FEE58FF4FA591B4918FB7F894B3
:10015000EC91611126C030953E233C938FBF0895EA
:100160002730A9F02830C9F0243049F78091800069
:100170008F7D03C0809180008F7780938000DFCFD8
:1001800084B58F7784BDDBCF84B58F7DFBCF809125
:10019000B0008F778093B000D2CF8091B0008F7D78
:1001A000F9CF3E2BDACF3FB7F89480912E01909192
:1001B0002F01A0913001B091310126B5A89B05C057
:1001C0002F3F19F00196A11DB11D3FBFBA2FA92FD6
:1001D000982F8827BC01CD01620F711D811D911DD3
:1001E00042E0660F771F881F991F4A95D1F708953F
:1001F0008F929F92AF92BF92CF92DF92EF92FF9237
:100200004B015C010E94D3006B017C010E94D30072
:100210006C197D098E099F09683E7340810591051F
:10022000A8F321E0821A9108A108B10888EEC80E4F
:1002300083E0D81EE11CF11C81149104A104B104D7
:1002400029F7FF90EF90DF90CF90BF90AF909F90F5
:100250008F9008951F920F920FB60F9211242F9333
:100260003F938F939F93AF93BF9380912A01909177
:100270002B01A0912C01B0912D013091290123E097
:10028000230F2D3758F50196A11DB11D209329018B
:1002900080932A0190932B01A0932C01B0932D0100
:1002A00080912E0190912F01A0913001B0913101E8
:1002B0000196A11DB11D80932E0190932F01A09353
:1002C0003001B0933101BF91AF919F918F913F91D8
:1002D0002F910F900FBE0F901F90189526E8230FB7
:1002E0000296A11DB11DD2CF1F920F920FB60F9291
:1002F00011242F933F934F935F936F937F938F932B
:100300009F93AF93BF93CF93DF93EF93FF9380912E
:100310000101C0910001D0E087FF24C01092850048
:1003200010928400809101018F5F80930101809180
:100330000101082E000C990B8C179D0724F4809165
:1003400001018C30C4F18091840090918500049665
:1003500080349C4908F47AC0809184009091850093
:10036000049676C080910101082E000C990B8C1721
:100370009D07C4F6E09101018E2FEE0F990BFC0151
:10038000EE0FFF1FE80FF91FEE5FFE4F808186FF23
:10039000C9CFE09101018E2FEE0F990BFC01EE0FFA
:1003A000FF1FE80FF91FEE5FFE4F808160E08F7343
:1003B0000E948700B7CF2091840030918500E091A2
:1003C00001018E2FEE0F990BFC01EE0FFF1FE80FBE
:1003D000F91FEE5FFE4F81819281820F931F9093F0
:1003E000890080938800E09101018E2FEE0F990B18
:1003F000FC01EE0FFF1FE80FF91FEE5FFE4F80813B
:1004000086FF11C0E09101018E2FEE0F990BFC01C8
:10041000EE0FFF1FE80FF91FEE5FFE4F808161E0D6
:100420008F730E948700FF91EF91DF91CF91BF9171
:10043000AF919F918F917F916F915F914F913F917C
:100440002F910F900FBE0F901F90189580E49CE99C
:1004500090938900809388008FEF80930101E3CF10
:10046000CF93DF9300D01F92CDB7DEB7789484B5D9
:10047000826084BD84B5816084BD85B5826085BDA0
:1004800085B5816085BD80916E00816080936E002E
:100490001092810080918100826080938100809120
:1004A00081008160809381008091800081608093D1
:1004B00080008091B10084608093B1008091B00091
:1004C00081608093B00080917A00846080937A008C
:1004D00080917A00826080937A0080917A008160B6
:1004E00080937A0080917A00806880937A001092DD
:1004F000C100809126018C3008F068C0E2E9F0E08C
:100500002491EEE7F0E08491882399F090E0880F41
:10051000991FFC01E859FF4FA591B491FC01EE58D9
:10052000FF4F859194918FB7F894EC91E22BEC9367
:100530008FBF80912601282F30E0F901EE0FFF1FB9
:10054000E20FF31FEE5FFE4F9081907C92609083EC
:1005500010922701109228012CE0622F0E94DA03EA
:10056000829FB001112430E020E0AB01420F531F05
:10057000FA01EE0FFF1FE40FF51FEE5FFE4F9081B3
:1005800096FD16C02F5F3F4F2C30310571F781115A
:100590000FC01092800082E080938100109285004D
:1005A00010928400B19A80916F00826080936F00F6
:1005B000E09126018E2F90E0FC01EE0FFF1FE80F67
:1005C000F91FEE5FFE4F80818064808364E670E0F7
:1005D00080E090E00E94F80068E5E62E62E0F62EEA
:1005E00078E8C72ED12CE4EB8E2E912CA12CB12CC7
:1005F000F0E02F2EF0E03F2E2091260129832C30B1
:1006000008F055C0809128018701081B110987FD5A
:100610001395000F111F000F111F809127019601E4
:10062000281B310987FD3395220F331F220F331FFB
:100630003B832A832901330F660877089801012E2E
:10064000000C440B550B2419350946095709AAE536
:10065000B0E00E949E03A50194010E947F03420E18
:10066000531E641E751E2A813B81421653063CF0C0
:100670001B830A834016510614F45B824A828A81E6
:100680009B810297880F991F9B838A832FB7F894C9
:100690003981832F90E0FC01EE0FFF1FE80FF91F57
:1006A000EE5FFE4F8A819B81928381832FBF68EE2C
:1006B00073E080E090E00E94F8002114310409F416
:1006C0009BCF0E94000098CF809100018C3098F45D
:1006D00091E0980F909300018093260190E0FC0137
:1006E000EE0FFF1FE80FF91FEE5FFE4F88EB9BE058
:1006F0009283818308958FEF809326010895052EBC
:1007000097FB1EF400940E94960357FD07D00E94A9
:10071000A90307FC03D04EF40C9496035095409522
:10072000309521953F4F4F4F5F4F0895909580959D
:10073000709561957F4F8F4F9F4F08950E94CB0317
:10074000A59F900DB49F900DA49F800D911D112425
:100750000895A1E21A2EAA1BBB1BFD010DC0AA1F02
:10076000BB1FEE1FFF1FA217B307E407F50720F01A
:10077000A21BB30BE40BF50B661F771F881F991F95
:100780001A9469F760957095809590959B01AC01DE
:10079000BD01CF010895A29FB001B39FC001A39FE7
:1007A000700D811D1124911DB29F700D811D1124AA
:1007B000911D0895991B79E004C0991F961708F0C0
:1007C000961B881F7A95C9F780950895EE0FFF1F35
:0C07D0000590F491E02D0994F894FFCFFF
:00000001FF
